{
  "contractName": "PizzaContract",
  "abi": [
    {
      "inputs": [],
      "name": "getOpen",
      "outputs": [
        {
          "internalType": "bool",
          "name": "",
          "type": "bool"
        }
      ],
      "stateMutability": "view",
      "type": "function",
      "constant": true
    },
    {
      "inputs": [
        {
          "internalType": "bool",
          "name": "_open",
          "type": "bool"
        }
      ],
      "name": "setOpen",
      "outputs": [],
      "stateMutability": "nonpayable",
      "type": "function"
    },
    {
      "inputs": [],
      "name": "buyPizza",
      "outputs": [],
      "stateMutability": "payable",
      "type": "function",
      "payable": true
    }
  ],
  "bytecode": "0x608060405273330621a4a93ab55575923a765d9b0e2c3d629b3a6000806101000a81548173ffffffffffffffffffffffffffffffffffffffff021916908373ffffffffffffffffffffffffffffffffffffffff16021790555060008060146101000a81548160ff021916908315150217905550600060015534801561008357600080fd5b50610420806100936000396000f3fe6080604052600436106100345760003560e01c8063353ddc8e146100395780636fdca5e014610064578063d8fd0f4d1461008d575b600080fd5b34801561004557600080fd5b5061004e610097565b60405161005b9190610206565b60405180910390f35b34801561007057600080fd5b5061008b60048036038101906100869190610252565b6100ad565b005b6100956100ca565b005b60008060149054906101000a900460ff16905090565b80600060146101000a81548160ff02191690831515021790555050565b60011515600060149054906101000a900460ff16151514610120576040517f08c379a0000000000000000000000000000000000000000000000000000000008152600401610117906102dc565b60405180910390fd5b6709b6e64a8ec60000341461016a576040517f08c379a000000000000000000000000000000000000000000000000000000000815260040161016190610348565b60405180910390fd5b60008054906101000a900473ffffffffffffffffffffffffffffffffffffffff1673ffffffffffffffffffffffffffffffffffffffff166108fc349081150290604051600060405180830381858888f193505050501580156101d0573d6000803e3d6000fd5b50600160008154809291906101e4906103a1565b9190505550565b60008115159050919050565b610200816101eb565b82525050565b600060208201905061021b60008301846101f7565b92915050565b600080fd5b61022f816101eb565b811461023a57600080fd5b50565b60008135905061024c81610226565b92915050565b60006020828403121561026857610267610221565b5b60006102768482850161023d565b91505092915050565b600082825260208201905092915050565b7f50697a7a6572696120697320636c6f7365640000000000000000000000000000600082015250565b60006102c660128361027f565b91506102d182610290565b602082019050919050565b600060208201905081810360008301526102f5816102b9565b9050919050565b7f412070697a7a6120636f73747320302e37204554484552000000000000000000600082015250565b600061033260178361027f565b915061033d826102fc565b602082019050919050565b6000602082019050818103600083015261036181610325565b9050919050565b7f4e487b7100000000000000000000000000000000000000000000000000000000600052601160045260246000fd5b6000819050919050565b60006103ac82610397565b91507fffffffffffffffffffffffffffffffffffffffffffffffffffffffffffffffff8214156103df576103de610368565b5b60018201905091905056fea2646970667358221220054916cad80b3ff8c406fcbf7acad3e578f96f0a22ec17c68f9505f4cb14273964736f6c634300080c0033",
  "immutableReferences": {},
  "source": "// SPDX-License-Identifier: MIT\npragma solidity >=0.4.22 <0.9.0;\n\ncontract PizzaContract {\n\n  address seller = 0x330621a4A93ab55575923A765d9B0e2c3D629b3a;\n  //seller private key: e7186783bd67b5e00b3fe81215471da51f1932b457837845219117ff09064c95\n\n  bool open = false;\n\n  uint sold = 0;\n\n  function getOpen() external view returns(bool)\n  {\n    return open;\n  }\n\n  function setOpen(bool _open) external\n  {\n    open = _open;\n  }\n\n  function buyPizza() external payable {\n    require(open == true, \"Pizzeria is closed\");\n    require(msg.value == 0.7 ether, \"A pizza costs 0.7 ETHER\");\n\n    payable(seller).transfer(msg.value);// Send ETH to the seller\n\n    sold++;\n  }\n}\n",
  "sourcePath": "C:\\Users\\Damien\\source\\repos\\workshop\\testone\\blockchain\\contracts\\PizzaContract.sol",
  "compiler": {
    "name": "solc",
    "version": "0.8.12+commit.f00d7308.Emscripten.clang"
  },
  "schemaVersion": "3.4.5",
  "updatedAt": "2022-05-04T14:47:08.761Z",
  "networkType": "ethereum",
  "devdoc": {
    "kind": "dev",
    "methods": {},
    "version": 1
  },
  "userdoc": {
    "kind": "user",
    "methods": {},
    "version": 1
  }
}