{
  "contractName": "PizzaContract",
  "abi": [
    {
      "inputs": [],
      "name": "getOpen",
      "outputs": [
        {
          "internalType": "bool",
          "name": "",
          "type": "bool"
        }
      ],
      "stateMutability": "view",
      "type": "function",
      "constant": true
    },
    {
      "inputs": [
        {
          "internalType": "bool",
          "name": "value",
          "type": "bool"
        }
      ],
      "name": "setOpen",
      "outputs": [],
      "stateMutability": "nonpayable",
      "type": "function"
    },
    {
      "inputs": [
        {
          "internalType": "string",
          "name": "pizza",
          "type": "string"
        }
      ],
      "name": "buyPizza",
      "outputs": [],
      "stateMutability": "payable",
      "type": "function",
      "payable": true
    }
  ],
  "bytecode": "0x608060405273330621a4a93ab55575923a765d9b0e2c3d629b3a6000806101000a81548173ffffffffffffffffffffffffffffffffffffffff021916908373ffffffffffffffffffffffffffffffffffffffff16021790555060008060146101000a81548160ff02191690831515021790555034801561007e57600080fd5b5061073e8061008e6000396000f3fe6080604052600436106100345760003560e01c8063353ddc8e1461003957806354a37d0b146100645780636fdca5e014610080575b600080fd5b34801561004557600080fd5b5061004e6100a9565b60405161005b919061030b565b60405180910390f35b61007e60048036038101906100799190610480565b6100bf565b005b34801561008c57600080fd5b506100a760048036038101906100a291906104f5565b6102d3565b005b60008060149054906101000a900460ff16905090565b60011515600060149054906101000a900460ff16151514610115576040517f08c379a000000000000000000000000000000000000000000000000000000000815260040161010c9061057f565b60405180910390fd5b6709b6e64a8ec60000341461015f576040517f08c379a0000000000000000000000000000000000000000000000000000000008152600401610156906105eb565b60405180910390fd5b600073ffffffffffffffffffffffffffffffffffffffff166001826040516101879190610685565b908152602001604051809103902060009054906101000a900473ffffffffffffffffffffffffffffffffffffffff1673ffffffffffffffffffffffffffffffffffffffff161461020c576040517f08c379a0000000000000000000000000000000000000000000000000000000008152600401610203906106e8565b60405180910390fd5b60008054906101000a900473ffffffffffffffffffffffffffffffffffffffff1673ffffffffffffffffffffffffffffffffffffffff166108fc349081150290604051600060405180830381858888f19350505050158015610272573d6000803e3d6000fd5b50336001826040516102849190610685565b908152602001604051809103902060006101000a81548173ffffffffffffffffffffffffffffffffffffffff021916908373ffffffffffffffffffffffffffffffffffffffff16021790555050565b80600060146101000a81548160ff02191690831515021790555050565b60008115159050919050565b610305816102f0565b82525050565b600060208201905061032060008301846102fc565b92915050565b6000604051905090565b600080fd5b600080fd5b600080fd5b600080fd5b6000601f19601f8301169050919050565b7f4e487b7100000000000000000000000000000000000000000000000000000000600052604160045260246000fd5b61038d82610344565b810181811067ffffffffffffffff821117156103ac576103ab610355565b5b80604052505050565b60006103bf610326565b90506103cb8282610384565b919050565b600067ffffffffffffffff8211156103eb576103ea610355565b5b6103f482610344565b9050602081019050919050565b82818337600083830152505050565b600061042361041e846103d0565b6103b5565b90508281526020810184848401111561043f5761043e61033f565b5b61044a848285610401565b509392505050565b600082601f8301126104675761046661033a565b5b8135610477848260208601610410565b91505092915050565b60006020828403121561049657610495610330565b5b600082013567ffffffffffffffff8111156104b4576104b3610335565b5b6104c084828501610452565b91505092915050565b6104d2816102f0565b81146104dd57600080fd5b50565b6000813590506104ef816104c9565b92915050565b60006020828403121561050b5761050a610330565b5b6000610519848285016104e0565b91505092915050565b600082825260208201905092915050565b7f50697a7a6572696120697320636c6f7365640000000000000000000000000000600082015250565b6000610569601283610522565b915061057482610533565b602082019050919050565b600060208201905081810360008301526105988161055c565b9050919050565b7f412070697a7a6120636f73747320302e37204554484552000000000000000000600082015250565b60006105d5601783610522565b91506105e08261059f565b602082019050919050565b60006020820190508181036000830152610604816105c8565b9050919050565b600081519050919050565b600081905092915050565b60005b8381101561063f578082015181840152602081019050610624565b8381111561064e576000848401525b50505050565b600061065f8261060b565b6106698185610616565b9350610679818560208601610621565b80840191505092915050565b60006106918284610654565b915081905092915050565b7f546869732070697a7a6120686173206265656e20736f6c6420616c7265616479600082015250565b60006106d2602083610522565b91506106dd8261069c565b602082019050919050565b60006020820190508181036000830152610701816106c5565b905091905056fea2646970667358221220fa03489fe12f8d16eb294a555d2a93397081adaf0269ea2eb8b3a7b8f0b2e26d64736f6c634300080c0033",
  "immutableReferences": {},
  "source": "// SPDX-License-Identifier: MIT\npragma solidity >=0.4.22 <0.9.0;\n\ncontract PizzaContract {\n\n  address seller = 0x330621a4A93ab55575923A765d9B0e2c3D629b3a;\n  //Private key of seller's account: e7186783bd67b5e00b3fe81215471da51f1932b457837845219117ff09064c95\n\n  bool open = false;\n\n  mapping(string => address) pizzaSales;//pizza name => buyer\n\n  function getOpen() external view returns(bool)\n  {\n    return open;\n  }\n\n  function setOpen(bool value) external\n  {\n    open = value;\n  }\n\n  function buyPizza(string memory pizza) external payable {\n    //1.  Make sure this function call is allowed:\n    require(open == true, \"Pizzeria is closed\");//require(boolean, string) functions require the given boolean to be true, or the given string will be returned as error.\n    require(msg.value == 0.7 ether, \"A pizza costs 0.7 ETHER\");//'msg.value' = the amount of crypto send.\n    require(pizzaSales[pizza] == address(0x0), \"This pizza has been sold already\");//address(0x0) means no address / empty address.\n\n    //2.  Transfer provided ETHER to the seller:\n    payable(seller).transfer(msg.value);\n\n    //3.  Save the sale in the Smart Contract:\n    pizzaSales[pizza] = msg.sender;\n  }\n\n  //TODO:\n  //Create a function that:\n  //  - Takes the pizza name as a parameter.\n  //  - Checks if the send pizza name exists in the Smart Contract.\n  //  - Returns the crypto address that has bought that pizza.\n}\n",
  "sourcePath": "C:\\Users\\Damien\\source\\repos\\workshop\\testone\\blockchain\\contracts\\PizzaContract.sol",
  "compiler": {
    "name": "solc",
    "version": "0.8.12+commit.f00d7308.Emscripten.clang"
  },
  "schemaVersion": "3.4.7",
  "updatedAt": "2022-05-12T08:10:32.011Z",
  "networkType": "ethereum",
  "devdoc": {
    "kind": "dev",
    "methods": {},
    "version": 1
  },
  "userdoc": {
    "kind": "user",
    "methods": {},
    "version": 1
  }
}