{
  "contractName": "PizzaContract",
  "abi": [
    {
      "inputs": [],
      "name": "getOpen",
      "outputs": [
        {
          "internalType": "bool",
          "name": "",
          "type": "bool"
        }
      ],
      "stateMutability": "view",
      "type": "function",
      "constant": true
    },
    {
      "inputs": [
        {
          "internalType": "bool",
          "name": "_open",
          "type": "bool"
        }
      ],
      "name": "setOpen",
      "outputs": [],
      "stateMutability": "nonpayable",
      "type": "function"
    }
  ],
  "bytecode": "0x608060405260008060006101000a81548160ff02191690831515021790555034801561002a57600080fd5b506101718061003a6000396000f3fe608060405234801561001057600080fd5b50600436106100365760003560e01c8063353ddc8e1461003b5780636fdca5e014610059575b600080fd5b610043610075565b60405161005091906100c2565b60405180910390f35b610073600480360381019061006e919061010e565b61008b565b005b60008060009054906101000a900460ff16905090565b806000806101000a81548160ff02191690831515021790555050565b60008115159050919050565b6100bc816100a7565b82525050565b60006020820190506100d760008301846100b3565b92915050565b600080fd5b6100eb816100a7565b81146100f657600080fd5b50565b600081359050610108816100e2565b92915050565b600060208284031215610124576101236100dd565b5b6000610132848285016100f9565b9150509291505056fea264697066735822122032ffe6368616dc2e40d1b68b83a8bcbd7c988e3643e1fb031350a1ab9a27885964736f6c634300080c0033",
  "immutableReferences": {},
  "source": "// SPDX-License-Identifier: MIT\npragma solidity >=0.4.22 <0.9.0;\n\ncontract PizzaContract {\n\n  bool open = false;\n\n  function getOpen() external view returns(bool)\n  {\n    return open;\n  }\n\n  function setOpen(bool _open) external\n  {\n    open = _open;\n  }\n}\n",
  "sourcePath": "C:\\Users\\Damien\\source\\repos\\workshop\\testone\\blockchain\\contracts\\PizzaContract.sol",
  "compiler": {
    "name": "solc",
    "version": "0.8.12+commit.f00d7308.Emscripten.clang"
  },
  "schemaVersion": "3.4.5",
  "updatedAt": "2022-05-04T12:28:07.004Z",
  "networkType": "ethereum",
  "devdoc": {
    "kind": "dev",
    "methods": {},
    "version": 1
  },
  "userdoc": {
    "kind": "user",
    "methods": {},
    "version": 1
  }
}