{
  "contractName": "PizzaContract",
  "abi": [
    {
      "inputs": [],
      "name": "getOpen",
      "outputs": [
        {
          "internalType": "bool",
          "name": "",
          "type": "bool"
        }
      ],
      "stateMutability": "view",
      "type": "function",
      "constant": true
    },
    {
      "inputs": [
        {
          "internalType": "bool",
          "name": "_open",
          "type": "bool"
        }
      ],
      "name": "setOpen",
      "outputs": [],
      "stateMutability": "nonpayable",
      "type": "function"
    },
    {
      "inputs": [
        {
          "internalType": "string",
          "name": "pizza",
          "type": "string"
        }
      ],
      "name": "buyPizza",
      "outputs": [],
      "stateMutability": "payable",
      "type": "function",
      "payable": true
    },
    {
      "inputs": [
        {
          "internalType": "string",
          "name": "pizza",
          "type": "string"
        }
      ],
      "name": "getPizzaBuyer",
      "outputs": [
        {
          "internalType": "address",
          "name": "",
          "type": "address"
        }
      ],
      "stateMutability": "view",
      "type": "function",
      "constant": true
    }
  ],
  "bytecode": "0x608060405273330621a4a93ab55575923a765d9b0e2c3d629b3a6000806101000a81548173ffffffffffffffffffffffffffffffffffffffff021916908373ffffffffffffffffffffffffffffffffffffffff16021790555060008060146101000a81548160ff02191690831515021790555034801561007e57600080fd5b506109438061008e6000396000f3fe60806040526004361061003f5760003560e01c8063353ddc8e1461004457806354a37d0b1461006f5780636fdca5e01461008b57806375f85d2b146100b4575b600080fd5b34801561005057600080fd5b506100596100f1565b6040516100669190610448565b60405180910390f35b610089600480360381019061008491906105bd565b610107565b005b34801561009757600080fd5b506100b260048036038101906100ad9190610632565b61031b565b005b3480156100c057600080fd5b506100db60048036038101906100d691906105bd565b610338565b6040516100e891906106a0565b60405180910390f35b60008060149054906101000a900460ff16905090565b60011515600060149054906101000a900460ff1615151461015d576040517f08c379a000000000000000000000000000000000000000000000000000000000815260040161015490610718565b60405180910390fd5b6709b6e64a8ec6000034146101a7576040517f08c379a000000000000000000000000000000000000000000000000000000000815260040161019e90610784565b60405180910390fd5b600073ffffffffffffffffffffffffffffffffffffffff166001826040516101cf919061081e565b908152602001604051809103902060009054906101000a900473ffffffffffffffffffffffffffffffffffffffff1673ffffffffffffffffffffffffffffffffffffffff1614610254576040517f08c379a000000000000000000000000000000000000000000000000000000000815260040161024b90610881565b60405180910390fd5b60008054906101000a900473ffffffffffffffffffffffffffffffffffffffff1673ffffffffffffffffffffffffffffffffffffffff166108fc349081150290604051600060405180830381858888f193505050501580156102ba573d6000803e3d6000fd5b50336001826040516102cc919061081e565b908152602001604051809103902060006101000a81548173ffffffffffffffffffffffffffffffffffffffff021916908373ffffffffffffffffffffffffffffffffffffffff16021790555050565b80600060146101000a81548160ff02191690831515021790555050565b60008073ffffffffffffffffffffffffffffffffffffffff16600183604051610361919061081e565b908152602001604051809103902060009054906101000a900473ffffffffffffffffffffffffffffffffffffffff1673ffffffffffffffffffffffffffffffffffffffff1614156103e7576040517f08c379a00000000000000000000000000000000000000000000000000000000081526004016103de906108ed565b60405180910390fd5b6001826040516103f7919061081e565b908152602001604051809103902060009054906101000a900473ffffffffffffffffffffffffffffffffffffffff169050919050565b60008115159050919050565b6104428161042d565b82525050565b600060208201905061045d6000830184610439565b92915050565b6000604051905090565b600080fd5b600080fd5b600080fd5b600080fd5b6000601f19601f8301169050919050565b7f4e487b7100000000000000000000000000000000000000000000000000000000600052604160045260246000fd5b6104ca82610481565b810181811067ffffffffffffffff821117156104e9576104e8610492565b5b80604052505050565b60006104fc610463565b905061050882826104c1565b919050565b600067ffffffffffffffff82111561052857610527610492565b5b61053182610481565b9050602081019050919050565b82818337600083830152505050565b600061056061055b8461050d565b6104f2565b90508281526020810184848401111561057c5761057b61047c565b5b61058784828561053e565b509392505050565b600082601f8301126105a4576105a3610477565b5b81356105b484826020860161054d565b91505092915050565b6000602082840312156105d3576105d261046d565b5b600082013567ffffffffffffffff8111156105f1576105f0610472565b5b6105fd8482850161058f565b91505092915050565b61060f8161042d565b811461061a57600080fd5b50565b60008135905061062c81610606565b92915050565b6000602082840312156106485761064761046d565b5b60006106568482850161061d565b91505092915050565b600073ffffffffffffffffffffffffffffffffffffffff82169050919050565b600061068a8261065f565b9050919050565b61069a8161067f565b82525050565b60006020820190506106b56000830184610691565b92915050565b600082825260208201905092915050565b7f50697a7a6572696120697320636c6f7365640000000000000000000000000000600082015250565b60006107026012836106bb565b915061070d826106cc565b602082019050919050565b60006020820190508181036000830152610731816106f5565b9050919050565b7f412070697a7a6120636f73747320302e37204554484552000000000000000000600082015250565b600061076e6017836106bb565b915061077982610738565b602082019050919050565b6000602082019050818103600083015261079d81610761565b9050919050565b600081519050919050565b600081905092915050565b60005b838110156107d85780820151818401526020810190506107bd565b838111156107e7576000848401525b50505050565b60006107f8826107a4565b61080281856107af565b93506108128185602086016107ba565b80840191505092915050565b600061082a82846107ed565b915081905092915050565b7f546869732070697a7a6120686173206265656e20736f6c6420616c7265616479600082015250565b600061086b6020836106bb565b915061087682610835565b602082019050919050565b6000602082019050818103600083015261089a8161085e565b9050919050565b7f4e6f206f6e65206f776e7320746869732070697a7a6100000000000000000000600082015250565b60006108d76016836106bb565b91506108e2826108a1565b602082019050919050565b60006020820190508181036000830152610906816108ca565b905091905056fea26469706673582212203a2ee9e36dd7a08387ece9f23373e38d9ad18af307fd8a697b0ab6f7377b959164736f6c634300080c0033",
  "immutableReferences": {},
  "source": "// SPDX-License-Identifier: MIT\npragma solidity >=0.4.22 <0.9.0;\n\ncontract PizzaContract {\n\n  address seller = 0x330621a4A93ab55575923A765d9B0e2c3D629b3a;\n  //Private key of seller's account: e7186783bd67b5e00b3fe81215471da51f1932b457837845219117ff09064c95\n\n  bool open = false;\n\n  mapping(string => address) pizzaSales;//pizza name => buyer\n\n  function getOpen() external view returns(bool)\n  {\n    return open;\n  }\n\n  function setOpen(bool _open) external\n  {\n    open = _open;\n  }\n\n  //TODO: Explain memory\n  function buyPizza(string memory pizza) external payable {\n    require(open == true, \"Pizzeria is closed\");\n    require(msg.value == 0.7 ether, \"A pizza costs 0.7 ETHER\");//msg.value = the amount of crypto send.\n\n    //address(0x0) means no address / empty address.\n    require(pizzaSales[pizza] == address(0x0), \"This pizza has been sold already\");\n\n    payable(seller).transfer(msg.value);//Transfer ETHER to the seller\n\n    pizzaSales[pizza] = msg.sender;//msg.sender = the crypto address that called the function.\n  }\n\n  //Function to be made by the attendees:\n  function getPizzaBuyer(string memory pizza) external view returns(address)\n  {\n    require(pizzaSales[pizza] != address(0x0), \"No one owns this pizza\");\n    return pizzaSales[pizza];\n  }\n}\n",
  "sourcePath": "C:\\Users\\Damien\\source\\repos\\workshop\\testone\\blockchain\\contracts\\PizzaContract.sol",
  "compiler": {
    "name": "solc",
    "version": "0.8.12+commit.f00d7308.Emscripten.clang"
  },
  "schemaVersion": "3.4.5",
  "updatedAt": "2022-05-05T09:52:30.499Z",
  "networkType": "ethereum",
  "devdoc": {
    "kind": "dev",
    "methods": {},
    "version": 1
  },
  "userdoc": {
    "kind": "user",
    "methods": {},
    "version": 1
  }
}